{
  "contractName": "VotingDAO",
  "abi": [
    {
      "inputs": [],
      "stateMutability": "nonpayable",
      "type": "constructor"
    },
    {
      "anonymous": false,
      "inputs": [
        {
          "indexed": true,
          "internalType": "uint256",
          "name": "proposalId",
          "type": "uint256"
        },
        {
          "indexed": false,
          "internalType": "string",
          "name": "svg",
          "type": "string"
        }
      ],
      "name": "NewProposal",
      "type": "event"
    },
    {
      "anonymous": false,
      "inputs": [
        {
          "indexed": true,
          "internalType": "uint256",
          "name": "proposalId",
          "type": "uint256"
        },
        {
          "indexed": false,
          "internalType": "bool",
          "name": "vote",
          "type": "bool"
        },
        {
          "indexed": false,
          "internalType": "address",
          "name": "voter",
          "type": "address"
        }
      ],
      "name": "Voted",
      "type": "event"
    },
    {
      "inputs": [],
      "name": "owner",
      "outputs": [
        {
          "internalType": "address",
          "name": "",
          "type": "address"
        }
      ],
      "stateMutability": "view",
      "type": "function"
    },
    {
      "inputs": [
        {
          "internalType": "uint256",
          "name": "",
          "type": "uint256"
        }
      ],
      "name": "proposals",
      "outputs": [
        {
          "internalType": "string",
          "name": "svg",
          "type": "string"
        },
        {
          "internalType": "uint256",
          "name": "yesVotes",
          "type": "uint256"
        },
        {
          "internalType": "uint256",
          "name": "noVotes",
          "type": "uint256"
        },
        {
          "internalType": "bool",
          "name": "isExecuted",
          "type": "bool"
        }
      ],
      "stateMutability": "view",
      "type": "function"
    },
    {
      "inputs": [
        {
          "internalType": "address",
          "name": "",
          "type": "address"
        }
      ],
      "name": "voters",
      "outputs": [
        {
          "internalType": "bool",
          "name": "",
          "type": "bool"
        }
      ],
      "stateMutability": "view",
      "type": "function"
    },
    {
      "inputs": [
        {
          "internalType": "address",
          "name": "_voter",
          "type": "address"
        }
      ],
      "name": "addVoter",
      "outputs": [],
      "stateMutability": "nonpayable",
      "type": "function"
    },
    {
      "inputs": [
        {
          "internalType": "string",
          "name": "_svg",
          "type": "string"
        }
      ],
      "name": "createProposal",
      "outputs": [],
      "stateMutability": "nonpayable",
      "type": "function"
    },
    {
      "inputs": [
        {
          "internalType": "uint256",
          "name": "_proposalId",
          "type": "uint256"
        },
        {
          "internalType": "bool",
          "name": "_vote",
          "type": "bool"
        }
      ],
      "name": "vote",
      "outputs": [],
      "stateMutability": "nonpayable",
      "type": "function"
    },
    {
      "inputs": [
        {
          "internalType": "uint256",
          "name": "_proposalId",
          "type": "uint256"
        }
      ],
      "name": "executeProposal",
      "outputs": [],
      "stateMutability": "nonpayable",
      "type": "function"
    },
    {
      "inputs": [
        {
          "internalType": "uint256",
          "name": "_proposalId",
          "type": "uint256"
        }
      ],
      "name": "viewVotes",
      "outputs": [
        {
          "internalType": "uint256",
          "name": "yesVotes",
          "type": "uint256"
        },
        {
          "internalType": "uint256",
          "name": "noVotes",
          "type": "uint256"
        }
      ],
      "stateMutability": "view",
      "type": "function"
    }
  ],
  "bytecode": "0x608060405234801561000f575f80fd5b50335f806101000a81548173ffffffffffffffffffffffffffffffffffffffff021916908373ffffffffffffffffffffffffffffffffffffffff1602179055506113648061005c5f395ff3fe608060405234801561000f575f80fd5b5060043610610086575f3560e01c8063a002f6ed11610059578063a002f6ed14610113578063a3ec138d14610144578063c9d27afe14610174578063f4ab9adf1461019057610086565b8063013cf08b1461008a5780630d61b519146100bd57806349c2a1a6146100d95780638da5cb5b146100f5575b5f80fd5b6100a4600480360381019061009f9190610952565b6101ac565b6040516100b49493929190610a30565b60405180910390f35b6100d760048036038101906100d29190610952565b610279565b005b6100f360048036038101906100ee9190610ba6565b61044a565b005b6100fd6105b7565b60405161010a9190610c2c565b60405180910390f35b61012d60048036038101906101289190610952565b6105da565b60405161013b929190610c45565b60405180910390f35b61015e60048036038101906101599190610c96565b610613565b60405161016b9190610cc1565b60405180910390f35b61018e60048036038101906101899190610d04565b610630565b005b6101aa60048036038101906101a59190610c96565b61082a565b005b600281815481106101bb575f80fd5b905f5260205f2090600402015f91509050805f0180546101da90610d6f565b80601f016020809104026020016040519081016040528092919081815260200182805461020690610d6f565b80156102515780601f1061022857610100808354040283529160200191610251565b820191905f5260205f20905b81548152906001019060200180831161023457829003601f168201915b505050505090806001015490806002015490806003015f9054906101000a900460ff16905084565b5f8054906101000a900473ffffffffffffffffffffffffffffffffffffffff1673ffffffffffffffffffffffffffffffffffffffff163373ffffffffffffffffffffffffffffffffffffffff1614610306576040517f08c379a00000000000000000000000000000000000000000000000000000000081526004016102fd90610de9565b60405180910390fd5b600280549050811061034d576040517f08c379a000000000000000000000000000000000000000000000000000000000815260040161034490610e51565b60405180910390fd5b6002818154811061036157610360610e6f565b5b905f5260205f2090600402016003015f9054906101000a900460ff16156103bd576040517f08c379a00000000000000000000000000000000000000000000000000000000081526004016103b490610ee6565b60405180910390fd5b5f600282815481106103d2576103d1610e6f565b5b905f5260205f2090600402019050806002015481600101541161042a576040517f08c379a000000000000000000000000000000000000000000000000000000000815260040161042190610f4e565b60405180910390fd5b6001816003015f6101000a81548160ff0219169083151502179055505050565b5f8054906101000a900473ffffffffffffffffffffffffffffffffffffffff1673ffffffffffffffffffffffffffffffffffffffff163373ffffffffffffffffffffffffffffffffffffffff16146104d7576040517f08c379a00000000000000000000000000000000000000000000000000000000081526004016104ce90610de9565b60405180910390fd5b600260405180608001604052808381526020015f81526020015f81526020015f1515815250908060018154018082558091505060019003905f5260205f2090600402015f909190919091505f820151815f0190816105359190611109565b5060208201518160010155604082015181600201556060820151816003015f6101000a81548160ff0219169083151502179055505050600160028054905061057d9190611205565b7fa9ef596c73fbcfb4a78bc139b1a19c35247c1f37d2489c0513ad2dd3eb7d8c6b826040516105ac9190611238565b60405180910390a250565b5f8054906101000a900473ffffffffffffffffffffffffffffffffffffffff1681565b5f805f600284815481106105f1576105f0610e6f565b5b905f5260205f2090600402019050806001015481600201549250925050915091565b6001602052805f5260405f205f915054906101000a900460ff1681565b60015f3373ffffffffffffffffffffffffffffffffffffffff1673ffffffffffffffffffffffffffffffffffffffff1681526020019081526020015f205f9054906101000a900460ff166106b9576040517f08c379a00000000000000000000000000000000000000000000000000000000081526004016106b0906112a2565b60405180910390fd5b6002805490508210610700576040517f08c379a00000000000000000000000000000000000000000000000000000000081526004016106f790610e51565b60405180910390fd5b6002828154811061071457610713610e6f565b5b905f5260205f2090600402016003015f9054906101000a900460ff1615610770576040517f08c379a000000000000000000000000000000000000000000000000000000000815260040161076790610ee6565b60405180910390fd5b80156107b3576002828154811061078a57610789610e6f565b5b905f5260205f2090600402016001015f8154809291906107a9906112c0565b91905055506107ec565b600282815481106107c7576107c6610e6f565b5b905f5260205f2090600402016002015f8154809291906107e6906112c0565b91905055505b817f86abfce99b7dd908bec0169288797f85049ec73cbe046ed9de818fab3a497ae0823360405161081e929190611307565b60405180910390a25050565b5f8054906101000a900473ffffffffffffffffffffffffffffffffffffffff1673ffffffffffffffffffffffffffffffffffffffff163373ffffffffffffffffffffffffffffffffffffffff16146108b7576040517f08c379a00000000000000000000000000000000000000000000000000000000081526004016108ae90610de9565b60405180910390fd5b6001805f8373ffffffffffffffffffffffffffffffffffffffff1673ffffffffffffffffffffffffffffffffffffffff1681526020019081526020015f205f6101000a81548160ff02191690831515021790555050565b5f604051905090565b5f80fd5b5f80fd5b5f819050919050565b6109318161091f565b811461093b575f80fd5b50565b5f8135905061094c81610928565b92915050565b5f6020828403121561096757610966610917565b5b5f6109748482850161093e565b91505092915050565b5f81519050919050565b5f82825260208201905092915050565b5f5b838110156109b4578082015181840152602081019050610999565b5f8484015250505050565b5f601f19601f8301169050919050565b5f6109d98261097d565b6109e38185610987565b93506109f3818560208601610997565b6109fc816109bf565b840191505092915050565b610a108161091f565b82525050565b5f8115159050919050565b610a2a81610a16565b82525050565b5f6080820190508181035f830152610a4881876109cf565b9050610a576020830186610a07565b610a646040830185610a07565b610a716060830184610a21565b95945050505050565b5f80fd5b5f80fd5b7f4e487b71000000000000000000000000000000000000000000000000000000005f52604160045260245ffd5b610ab8826109bf565b810181811067ffffffffffffffff82111715610ad757610ad6610a82565b5b80604052505050565b5f610ae961090e565b9050610af58282610aaf565b919050565b5f67ffffffffffffffff821115610b1457610b13610a82565b5b610b1d826109bf565b9050602081019050919050565b828183375f83830152505050565b5f610b4a610b4584610afa565b610ae0565b905082815260208101848484011115610b6657610b65610a7e565b5b610b71848285610b2a565b509392505050565b5f82601f830112610b8d57610b8c610a7a565b5b8135610b9d848260208601610b38565b91505092915050565b5f60208284031215610bbb57610bba610917565b5b5f82013567ffffffffffffffff811115610bd857610bd761091b565b5b610be484828501610b79565b91505092915050565b5f73ffffffffffffffffffffffffffffffffffffffff82169050919050565b5f610c1682610bed565b9050919050565b610c2681610c0c565b82525050565b5f602082019050610c3f5f830184610c1d565b92915050565b5f604082019050610c585f830185610a07565b610c656020830184610a07565b9392505050565b610c7581610c0c565b8114610c7f575f80fd5b50565b5f81359050610c9081610c6c565b92915050565b5f60208284031215610cab57610caa610917565b5b5f610cb884828501610c82565b91505092915050565b5f602082019050610cd45f830184610a21565b92915050565b610ce381610a16565b8114610ced575f80fd5b50565b5f81359050610cfe81610cda565b92915050565b5f8060408385031215610d1a57610d19610917565b5b5f610d278582860161093e565b9250506020610d3885828601610cf0565b9150509250929050565b7f4e487b71000000000000000000000000000000000000000000000000000000005f52602260045260245ffd5b5f6002820490506001821680610d8657607f821691505b602082108103610d9957610d98610d42565b5b50919050565b7f4e6f7420617574686f72697a65640000000000000000000000000000000000005f82015250565b5f610dd3600e83610987565b9150610dde82610d9f565b602082019050919050565b5f6020820190508181035f830152610e0081610dc7565b9050919050565b7f496e76616c69642070726f706f73616c204944000000000000000000000000005f82015250565b5f610e3b601383610987565b9150610e4682610e07565b602082019050919050565b5f6020820190508181035f830152610e6881610e2f565b9050919050565b7f4e487b71000000000000000000000000000000000000000000000000000000005f52603260045260245ffd5b7f50726f706f73616c20616c7265616479206578656375746564000000000000005f82015250565b5f610ed0601983610987565b9150610edb82610e9c565b602082019050919050565b5f6020820190508181035f830152610efd81610ec4565b9050919050565b7f4e6f7420656e6f7567682079657320766f7465730000000000000000000000005f82015250565b5f610f38601483610987565b9150610f4382610f04565b602082019050919050565b5f6020820190508181035f830152610f6581610f2c565b9050919050565b5f819050815f5260205f209050919050565b5f6020601f8301049050919050565b5f82821b905092915050565b5f60088302610fc87fffffffffffffffffffffffffffffffffffffffffffffffffffffffffffffffff82610f8d565b610fd28683610f8d565b95508019841693508086168417925050509392505050565b5f819050919050565b5f61100d6110086110038461091f565b610fea565b61091f565b9050919050565b5f819050919050565b61102683610ff3565b61103a61103282611014565b848454610f99565b825550505050565b5f90565b61104e611042565b61105981848461101d565b505050565b5b8181101561107c576110715f82611046565b60018101905061105f565b5050565b601f8211156110c15761109281610f6c565b61109b84610f7e565b810160208510156110aa578190505b6110be6110b685610f7e565b83018261105e565b50505b505050565b5f82821c905092915050565b5f6110e15f19846008026110c6565b1980831691505092915050565b5f6110f983836110d2565b9150826002028217905092915050565b6111128261097d565b67ffffffffffffffff81111561112b5761112a610a82565b5b6111358254610d6f565b611140828285611080565b5f60209050601f831160018114611171575f841561115f578287015190505b61116985826110ee565b8655506111d0565b601f19841661117f86610f6c565b5f5b828110156111a657848901518255600182019150602085019450602081019050611181565b868310156111c357848901516111bf601f8916826110d2565b8355505b6001600288020188555050505b505050505050565b7f4e487b71000000000000000000000000000000000000000000000000000000005f52601160045260245ffd5b5f61120f8261091f565b915061121a8361091f565b9250828203905081811115611232576112316111d8565b5b92915050565b5f6020820190508181035f83015261125081846109cf565b905092915050565b7f4e6f74206120766f7465720000000000000000000000000000000000000000005f82015250565b5f61128c600b83610987565b915061129782611258565b602082019050919050565b5f6020820190508181035f8301526112b981611280565b9050919050565b5f6112ca8261091f565b91507fffffffffffffffffffffffffffffffffffffffffffffffffffffffffffffffff82036112fc576112fb6111d8565b5b600182019050919050565b5f60408201905061131a5f830185610a21565b6113276020830184610c1d565b939250505056fea2646970667358221220804d48316cc1d4cccfd91f936bc3f7b88d68972d1d35c19b1680f6cf4b019b4c64736f6c63430008150033",
  "immutableReferences": {},
  "source": "// SPDX-License-Identifier: MIT\npragma solidity ^0.8.21;\n\ncontract VotingDAO {\n    struct Proposal {\n        string svg; // the logo content\n        uint256 yesVotes;\n        uint256 noVotes;\n        bool isExecuted;\n    }\n\n    address public owner;\n    mapping(address => bool) public voters;\n    Proposal[] public proposals;\n\n    event NewProposal(uint256 indexed proposalId, string svg);\n    event Voted(uint256 indexed proposalId, bool vote, address voter);\n\n    constructor() {\n        owner = msg.sender;\n    }\n\n    modifier onlyOwner() {\n        require(msg.sender == owner, \"Not authorized\");\n        _;\n    }\n\n    modifier onlyVoters() {\n        require(voters[msg.sender], \"Not a voter\");\n        _;\n    }\n\n    function addVoter(address _voter) public onlyOwner {\n        voters[_voter] = true;\n    }\n\n    function createProposal(string memory _svg) public onlyOwner {\n        proposals.push(Proposal(_svg, 0, 0, false));\n        emit NewProposal(proposals.length - 1, _svg);\n    }\n\n    function vote(uint256 _proposalId, bool _vote) public onlyVoters {\n        require(_proposalId < proposals.length, \"Invalid proposal ID\");\n        require(!proposals[_proposalId].isExecuted, \"Proposal already executed\");\n\n        if (_vote) {\n            proposals[_proposalId].yesVotes++;\n        } else {\n            proposals[_proposalId].noVotes++;\n        }\n\n        emit Voted(_proposalId, _vote, msg.sender);\n    }\n\n    function executeProposal(uint256 _proposalId) public onlyOwner {\n        require(_proposalId < proposals.length, \"Invalid proposal ID\");\n        require(!proposals[_proposalId].isExecuted, \"Proposal already executed\");\n\n        Proposal storage proposal = proposals[_proposalId];\n        \n        require(proposal.yesVotes > proposal.noVotes, \"Not enough yes votes\");\n\n        proposal.isExecuted = true;\n    }\n\n    function viewVotes(uint256 _proposalId) public view returns (uint256 yesVotes, uint256 noVotes) {\n        Proposal storage proposal = proposals[_proposalId];\n        return (proposal.yesVotes, proposal.noVotes);\n    }\n\n}\n",
  "sourcePath": "/Users/Cinwald/Code/dao_voting/contracts/VotingDAO.sol",
  "compiler": {
    "name": "solc",
    "version": "0.8.21+commit.d9974bed.Emscripten.clang"
  },
  "schemaVersion": "3.4.16",
  "updatedAt": "2023-10-06T19:27:55.093Z",
  "devdoc": {
    "kind": "dev",
    "methods": {},
    "version": 1
  },
  "userdoc": {
    "kind": "user",
    "methods": {},
    "version": 1
  }
}