{
  "contractName": "VotingDAO",
  "abi": [
    {
      "inputs": [],
      "stateMutability": "nonpayable",
      "type": "constructor"
    },
    {
      "anonymous": false,
      "inputs": [
        {
          "indexed": true,
          "internalType": "uint256",
          "name": "proposalId",
          "type": "uint256"
        },
        {
          "indexed": false,
          "internalType": "string",
          "name": "svg",
          "type": "string"
        }
      ],
      "name": "NewProposal",
      "type": "event"
    },
    {
      "anonymous": false,
      "inputs": [
        {
          "indexed": true,
          "internalType": "uint256",
          "name": "proposalId",
          "type": "uint256"
        },
        {
          "indexed": false,
          "internalType": "bool",
          "name": "vote",
          "type": "bool"
        },
        {
          "indexed": false,
          "internalType": "address",
          "name": "voter",
          "type": "address"
        }
      ],
      "name": "Voted",
      "type": "event"
    },
    {
      "inputs": [],
      "name": "owner",
      "outputs": [
        {
          "internalType": "address",
          "name": "",
          "type": "address"
        }
      ],
      "stateMutability": "view",
      "type": "function",
      "constant": true
    },
    {
      "inputs": [
        {
          "internalType": "uint256",
          "name": "",
          "type": "uint256"
        }
      ],
      "name": "proposals",
      "outputs": [
        {
          "internalType": "string",
          "name": "svg",
          "type": "string"
        },
        {
          "internalType": "uint256",
          "name": "yesVotes",
          "type": "uint256"
        },
        {
          "internalType": "uint256",
          "name": "noVotes",
          "type": "uint256"
        },
        {
          "internalType": "bool",
          "name": "isExecuted",
          "type": "bool"
        }
      ],
      "stateMutability": "view",
      "type": "function",
      "constant": true
    },
    {
      "inputs": [
        {
          "internalType": "address",
          "name": "",
          "type": "address"
        }
      ],
      "name": "voters",
      "outputs": [
        {
          "internalType": "bool",
          "name": "",
          "type": "bool"
        }
      ],
      "stateMutability": "view",
      "type": "function",
      "constant": true
    },
    {
      "inputs": [
        {
          "internalType": "address",
          "name": "_voter",
          "type": "address"
        }
      ],
      "name": "addVoter",
      "outputs": [],
      "stateMutability": "nonpayable",
      "type": "function"
    },
    {
      "inputs": [
        {
          "internalType": "string",
          "name": "_svg",
          "type": "string"
        }
      ],
      "name": "createProposal",
      "outputs": [
        {
          "internalType": "uint256",
          "name": "",
          "type": "uint256"
        }
      ],
      "stateMutability": "nonpayable",
      "type": "function"
    },
    {
      "inputs": [
        {
          "internalType": "uint256",
          "name": "_proposalId",
          "type": "uint256"
        },
        {
          "internalType": "bool",
          "name": "_vote",
          "type": "bool"
        }
      ],
      "name": "vote",
      "outputs": [],
      "stateMutability": "nonpayable",
      "type": "function"
    },
    {
      "inputs": [
        {
          "internalType": "uint256",
          "name": "_proposalId",
          "type": "uint256"
        }
      ],
      "name": "executeProposal",
      "outputs": [],
      "stateMutability": "nonpayable",
      "type": "function"
    },
    {
      "inputs": [
        {
          "internalType": "uint256",
          "name": "_proposalId",
          "type": "uint256"
        }
      ],
      "name": "viewVotes",
      "outputs": [
        {
          "internalType": "uint256",
          "name": "yesVotes",
          "type": "uint256"
        },
        {
          "internalType": "uint256",
          "name": "noVotes",
          "type": "uint256"
        }
      ],
      "stateMutability": "view",
      "type": "function",
      "constant": true
    },
    {
      "inputs": [],
      "name": "getAllProposals",
      "outputs": [
        {
          "internalType": "string[]",
          "name": "svgs",
          "type": "string[]"
        },
        {
          "internalType": "uint256[]",
          "name": "yesVotes",
          "type": "uint256[]"
        },
        {
          "internalType": "uint256[]",
          "name": "noVotes",
          "type": "uint256[]"
        },
        {
          "internalType": "bool[]",
          "name": "isExecuted",
          "type": "bool[]"
        }
      ],
      "stateMutability": "view",
      "type": "function",
      "constant": true
    }
  ],
  "bytecode": "0x608060405234801561000f575f80fd5b50335f806101000a81548173ffffffffffffffffffffffffffffffffffffffff021916908373ffffffffffffffffffffffffffffffffffffffff160217905550611b618061005c5f395ff3fe608060405234801561000f575f80fd5b5060043610610091575f3560e01c8063a002f6ed11610064578063a002f6ed14610132578063a3ec138d14610163578063c9d27afe14610193578063cceb68f5146101af578063f4ab9adf146101d057610091565b8063013cf08b146100955780630d61b519146100c857806349c2a1a6146100e45780638da5cb5b14610114575b5f80fd5b6100af60048036038101906100aa9190610dfe565b6101ec565b6040516100bf9493929190610edc565b60405180910390f35b6100e260048036038101906100dd9190610dfe565b6102b9565b005b6100fe60048036038101906100f99190611052565b61048a565b60405161010b9190611099565b60405180910390f35b61011c61060a565b60405161012991906110f1565b60405180910390f35b61014c60048036038101906101479190610dfe565b61062d565b60405161015a92919061110a565b60405180910390f35b61017d6004803603810190610178919061115b565b610666565b60405161018a9190611186565b60405180910390f35b6101ad60048036038101906101a891906111c9565b610683565b005b6101b761099e565b6040516101c79493929190611478565b60405180910390f35b6101ea60048036038101906101e5919061115b565b610cd6565b005b600281815481106101fb575f80fd5b905f5260205f2090600502015f91509050805f01805461021a90611504565b80601f016020809104026020016040519081016040528092919081815260200182805461024690611504565b80156102915780601f1061026857610100808354040283529160200191610291565b820191905f5260205f20905b81548152906001019060200180831161027457829003601f168201915b505050505090806001015490806002015490806003015f9054906101000a900460ff16905084565b5f8054906101000a900473ffffffffffffffffffffffffffffffffffffffff1673ffffffffffffffffffffffffffffffffffffffff163373ffffffffffffffffffffffffffffffffffffffff1614610346576040517f08c379a000000000000000000000000000000000000000000000000000000000815260040161033d9061157e565b60405180910390fd5b600280549050811061038d576040517f08c379a0000000000000000000000000000000000000000000000000000000008152600401610384906115e6565b60405180910390fd5b600281815481106103a1576103a0611604565b5b905f5260205f2090600502016003015f9054906101000a900460ff16156103fd576040517f08c379a00000000000000000000000000000000000000000000000000000000081526004016103f49061167b565b60405180910390fd5b5f6002828154811061041257610411611604565b5b905f5260205f2090600502019050806002015481600101541161046a576040517f08c379a0000000000000000000000000000000000000000000000000000000008152600401610461906116e3565b60405180910390fd5b6001816003015f6101000a81548160ff0219169083151502179055505050565b5f805f9054906101000a900473ffffffffffffffffffffffffffffffffffffffff1673ffffffffffffffffffffffffffffffffffffffff163373ffffffffffffffffffffffffffffffffffffffff1614610519576040517f08c379a00000000000000000000000000000000000000000000000000000000081526004016105109061157e565b60405180910390fd5b600260018160018154018082558091505003905f5260205f209050505f6002600160028054905061054a919061172e565b8154811061055b5761055a611604565b5b905f5260205f209060050201905082815f01908161057991906118fe565b505f81600101819055505f81600201819055505f816003015f6101000a81548160ff02191690831515021790555060016002805490506105b9919061172e565b7fa9ef596c73fbcfb4a78bc139b1a19c35247c1f37d2489c0513ad2dd3eb7d8c6b846040516105e891906119cd565b60405180910390a26001600280549050610602919061172e565b915050919050565b5f8054906101000a900473ffffffffffffffffffffffffffffffffffffffff1681565b5f805f6002848154811061064457610643611604565b5b905f5260205f2090600502019050806001015481600201549250925050915091565b6001602052805f5260405f205f915054906101000a900460ff1681565b60015f3373ffffffffffffffffffffffffffffffffffffffff1673ffffffffffffffffffffffffffffffffffffffff1681526020019081526020015f205f9054906101000a900460ff1661070c576040517f08c379a000000000000000000000000000000000000000000000000000000000815260040161070390611a37565b60405180910390fd5b6002805490508210610753576040517f08c379a000000000000000000000000000000000000000000000000000000000815260040161074a906115e6565b60405180910390fd5b6002828154811061076757610766611604565b5b905f5260205f2090600502016003015f9054906101000a900460ff16156107c3576040517f08c379a00000000000000000000000000000000000000000000000000000000081526004016107ba9061167b565b60405180910390fd5b600282815481106107d7576107d6611604565b5b905f5260205f2090600502016004015f3373ffffffffffffffffffffffffffffffffffffffff1673ffffffffffffffffffffffffffffffffffffffff1681526020019081526020015f205f9054906101000a900460ff161561086e576040517f08c379a000000000000000000000000000000000000000000000000000000000815260040161086590611a9f565b60405180910390fd5b60016002838154811061088457610883611604565b5b905f5260205f2090600502016004015f3373ffffffffffffffffffffffffffffffffffffffff1673ffffffffffffffffffffffffffffffffffffffff1681526020019081526020015f205f6101000a81548160ff021916908315150217905550801561092757600282815481106108fe576108fd611604565b5b905f5260205f2090600502016001015f81548092919061091d90611abd565b9190505550610960565b6002828154811061093b5761093a611604565b5b905f5260205f2090600502016002015f81548092919061095a90611abd565b91905055505b817f86abfce99b7dd908bec0169288797f85049ec73cbe046ed9de818fab3a497ae08233604051610992929190611b04565b60405180910390a25050565b60608060608060015f3373ffffffffffffffffffffffffffffffffffffffff1673ffffffffffffffffffffffffffffffffffffffff1681526020019081526020015f205f9054906101000a900460ff16610a2d576040517f08c379a0000000000000000000000000000000000000000000000000000000008152600401610a2490611a37565b60405180910390fd5b5f60028054905090508067ffffffffffffffff811115610a5057610a4f610f2e565b5b604051908082528060200260200182016040528015610a8357816020015b6060815260200190600190039081610a6e5790505b5094508067ffffffffffffffff811115610aa057610a9f610f2e565b5b604051908082528060200260200182016040528015610ace5781602001602082028036833780820191505090505b5093508067ffffffffffffffff811115610aeb57610aea610f2e565b5b604051908082528060200260200182016040528015610b195781602001602082028036833780820191505090505b5092508067ffffffffffffffff811115610b3657610b35610f2e565b5b604051908082528060200260200182016040528015610b645781602001602082028036833780820191505090505b5091505f5b81811015610cce575f60028281548110610b8657610b85611604565b5b905f5260205f2090600502019050805f018054610ba290611504565b80601f0160208091040260200160405190810160405280929190818152602001828054610bce90611504565b8015610c195780601f10610bf057610100808354040283529160200191610c19565b820191905f5260205f20905b815481529060010190602001808311610bfc57829003601f168201915b5050505050878381518110610c3157610c30611604565b5b60200260200101819052508060010154868381518110610c5457610c53611604565b5b6020026020010181815250508060020154858381518110610c7857610c77611604565b5b602002602001018181525050806003015f9054906101000a900460ff16848381518110610ca857610ca7611604565b5b602002602001019015159081151581525050508080610cc690611abd565b915050610b69565b505090919293565b5f8054906101000a900473ffffffffffffffffffffffffffffffffffffffff1673ffffffffffffffffffffffffffffffffffffffff163373ffffffffffffffffffffffffffffffffffffffff1614610d63576040517f08c379a0000000000000000000000000000000000000000000000000000000008152600401610d5a9061157e565b60405180910390fd5b6001805f8373ffffffffffffffffffffffffffffffffffffffff1673ffffffffffffffffffffffffffffffffffffffff1681526020019081526020015f205f6101000a81548160ff02191690831515021790555050565b5f604051905090565b5f80fd5b5f80fd5b5f819050919050565b610ddd81610dcb565b8114610de7575f80fd5b50565b5f81359050610df881610dd4565b92915050565b5f60208284031215610e1357610e12610dc3565b5b5f610e2084828501610dea565b91505092915050565b5f81519050919050565b5f82825260208201905092915050565b5f5b83811015610e60578082015181840152602081019050610e45565b5f8484015250505050565b5f601f19601f8301169050919050565b5f610e8582610e29565b610e8f8185610e33565b9350610e9f818560208601610e43565b610ea881610e6b565b840191505092915050565b610ebc81610dcb565b82525050565b5f8115159050919050565b610ed681610ec2565b82525050565b5f6080820190508181035f830152610ef48187610e7b565b9050610f036020830186610eb3565b610f106040830185610eb3565b610f1d6060830184610ecd565b95945050505050565b5f80fd5b5f80fd5b7f4e487b71000000000000000000000000000000000000000000000000000000005f52604160045260245ffd5b610f6482610e6b565b810181811067ffffffffffffffff82111715610f8357610f82610f2e565b5b80604052505050565b5f610f95610dba565b9050610fa18282610f5b565b919050565b5f67ffffffffffffffff821115610fc057610fbf610f2e565b5b610fc982610e6b565b9050602081019050919050565b828183375f83830152505050565b5f610ff6610ff184610fa6565b610f8c565b90508281526020810184848401111561101257611011610f2a565b5b61101d848285610fd6565b509392505050565b5f82601f83011261103957611038610f26565b5b8135611049848260208601610fe4565b91505092915050565b5f6020828403121561106757611066610dc3565b5b5f82013567ffffffffffffffff81111561108457611083610dc7565b5b61109084828501611025565b91505092915050565b5f6020820190506110ac5f830184610eb3565b92915050565b5f73ffffffffffffffffffffffffffffffffffffffff82169050919050565b5f6110db826110b2565b9050919050565b6110eb816110d1565b82525050565b5f6020820190506111045f8301846110e2565b92915050565b5f60408201905061111d5f830185610eb3565b61112a6020830184610eb3565b9392505050565b61113a816110d1565b8114611144575f80fd5b50565b5f8135905061115581611131565b92915050565b5f602082840312156111705761116f610dc3565b5b5f61117d84828501611147565b91505092915050565b5f6020820190506111995f830184610ecd565b92915050565b6111a881610ec2565b81146111b2575f80fd5b50565b5f813590506111c38161119f565b92915050565b5f80604083850312156111df576111de610dc3565b5b5f6111ec85828601610dea565b92505060206111fd858286016111b5565b9150509250929050565b5f81519050919050565b5f82825260208201905092915050565b5f819050602082019050919050565b5f82825260208201905092915050565b5f61124a82610e29565b6112548185611230565b9350611264818560208601610e43565b61126d81610e6b565b840191505092915050565b5f6112838383611240565b905092915050565b5f602082019050919050565b5f6112a182611207565b6112ab8185611211565b9350836020820285016112bd85611221565b805f5b858110156112f857848403895281516112d98582611278565b94506112e48361128b565b925060208a019950506001810190506112c0565b50829750879550505050505092915050565b5f81519050919050565b5f82825260208201905092915050565b5f819050602082019050919050565b61133c81610dcb565b82525050565b5f61134d8383611333565b60208301905092915050565b5f602082019050919050565b5f61136f8261130a565b6113798185611314565b935061138483611324565b805f5b838110156113b457815161139b8882611342565b97506113a683611359565b925050600181019050611387565b5085935050505092915050565b5f81519050919050565b5f82825260208201905092915050565b5f819050602082019050919050565b6113f381610ec2565b82525050565b5f61140483836113ea565b60208301905092915050565b5f602082019050919050565b5f611426826113c1565b61143081856113cb565b935061143b836113db565b805f5b8381101561146b57815161145288826113f9565b975061145d83611410565b92505060018101905061143e565b5085935050505092915050565b5f6080820190508181035f8301526114908187611297565b905081810360208301526114a48186611365565b905081810360408301526114b88185611365565b905081810360608301526114cc818461141c565b905095945050505050565b7f4e487b71000000000000000000000000000000000000000000000000000000005f52602260045260245ffd5b5f600282049050600182168061151b57607f821691505b60208210810361152e5761152d6114d7565b5b50919050565b7f4e6f7420617574686f72697a65640000000000000000000000000000000000005f82015250565b5f611568600e83610e33565b915061157382611534565b602082019050919050565b5f6020820190508181035f8301526115958161155c565b9050919050565b7f496e76616c69642070726f706f73616c204944000000000000000000000000005f82015250565b5f6115d0601383610e33565b91506115db8261159c565b602082019050919050565b5f6020820190508181035f8301526115fd816115c4565b9050919050565b7f4e487b71000000000000000000000000000000000000000000000000000000005f52603260045260245ffd5b7f50726f706f73616c20616c7265616479206578656375746564000000000000005f82015250565b5f611665601983610e33565b915061167082611631565b602082019050919050565b5f6020820190508181035f83015261169281611659565b9050919050565b7f4e6f7420656e6f7567682079657320766f7465730000000000000000000000005f82015250565b5f6116cd601483610e33565b91506116d882611699565b602082019050919050565b5f6020820190508181035f8301526116fa816116c1565b9050919050565b7f4e487b71000000000000000000000000000000000000000000000000000000005f52601160045260245ffd5b5f61173882610dcb565b915061174383610dcb565b925082820390508181111561175b5761175a611701565b5b92915050565b5f819050815f5260205f209050919050565b5f6020601f8301049050919050565b5f82821b905092915050565b5f600883026117bd7fffffffffffffffffffffffffffffffffffffffffffffffffffffffffffffffff82611782565b6117c78683611782565b95508019841693508086168417925050509392505050565b5f819050919050565b5f6118026117fd6117f884610dcb565b6117df565b610dcb565b9050919050565b5f819050919050565b61181b836117e8565b61182f61182782611809565b84845461178e565b825550505050565b5f90565b611843611837565b61184e818484611812565b505050565b5b81811015611871576118665f8261183b565b600181019050611854565b5050565b601f8211156118b65761188781611761565b61189084611773565b8101602085101561189f578190505b6118b36118ab85611773565b830182611853565b50505b505050565b5f82821c905092915050565b5f6118d65f19846008026118bb565b1980831691505092915050565b5f6118ee83836118c7565b9150826002028217905092915050565b61190782610e29565b67ffffffffffffffff8111156119205761191f610f2e565b5b61192a8254611504565b611935828285611875565b5f60209050601f831160018114611966575f8415611954578287015190505b61195e85826118e3565b8655506119c5565b601f19841661197486611761565b5f5b8281101561199b57848901518255600182019150602085019450602081019050611976565b868310156119b857848901516119b4601f8916826118c7565b8355505b6001600288020188555050505b505050505050565b5f6020820190508181035f8301526119e58184610e7b565b905092915050565b7f4e6f74206120766f7465720000000000000000000000000000000000000000005f82015250565b5f611a21600b83610e33565b9150611a2c826119ed565b602082019050919050565b5f6020820190508181035f830152611a4e81611a15565b9050919050565b7f416c726561647920766f746564000000000000000000000000000000000000005f82015250565b5f611a89600d83610e33565b9150611a9482611a55565b602082019050919050565b5f6020820190508181035f830152611ab681611a7d565b9050919050565b5f611ac782610dcb565b91507fffffffffffffffffffffffffffffffffffffffffffffffffffffffffffffffff8203611af957611af8611701565b5b600182019050919050565b5f604082019050611b175f830185610ecd565b611b2460208301846110e2565b939250505056fea26469706673582212207a56bfb75d3bed3c0058be2df48e76806bca89f78a5716216c9f9a9505fe44c364736f6c63430008150033",
  "immutableReferences": {},
  "source": "// SPDX-License-Identifier: MIT\npragma solidity ^0.8.21;\n\ncontract VotingDAO {\n    struct Proposal {\n        string svg; // the logo content\n        uint256 yesVotes;\n        uint256 noVotes;\n        bool isExecuted;\n        mapping(address => bool) hasVoted;\n    }\n\n    address public owner;\n    mapping(address => bool) public voters;\n    Proposal[] public proposals;\n\n    event NewProposal(uint256 indexed proposalId, string svg);\n    event Voted(uint256 indexed proposalId, bool vote, address voter);\n\n    constructor() {\n        owner = msg.sender;\n    }\n\n    modifier onlyOwner() {\n        require(msg.sender == owner, \"Not authorized\");\n        _;\n    }\n\n    modifier onlyVoters() {\n        require(voters[msg.sender], \"Not a voter\");\n        _;\n    }\n\n    function addVoter(address _voter) public onlyOwner {\n        voters[_voter] = true;\n    }\n\n    function createProposal(string memory _svg) public onlyOwner returns (uint256) {\n        proposals.push();\n        Proposal storage newProposal = proposals[proposals.length - 1];\n        newProposal.svg = _svg;\n        newProposal.yesVotes = 0;\n        newProposal.noVotes = 0;\n        newProposal.isExecuted = false;\n\n        emit NewProposal(proposals.length - 1, _svg);\n        return proposals.length - 1;\n    }\n\n    function vote(uint256 _proposalId, bool _vote) public onlyVoters {\n        require(_proposalId < proposals.length, \"Invalid proposal ID\");\n        require(!proposals[_proposalId].isExecuted, \"Proposal already executed\");\n        require(!proposals[_proposalId].hasVoted[msg.sender], \"Already voted\");\n\n        // Mark that this voter has voted on this proposal\n        proposals[_proposalId].hasVoted[msg.sender] = true;\n\n        if (_vote) {\n            proposals[_proposalId].yesVotes++;\n        } else {\n            proposals[_proposalId].noVotes++;\n        }\n\n        emit Voted(_proposalId, _vote, msg.sender);\n    }\n\n    function executeProposal(uint256 _proposalId) public onlyOwner {\n        require(_proposalId < proposals.length, \"Invalid proposal ID\");\n        require(!proposals[_proposalId].isExecuted, \"Proposal already executed\");\n\n        Proposal storage proposal = proposals[_proposalId];\n\n        require(proposal.yesVotes > proposal.noVotes, \"Not enough yes votes\");\n\n        proposal.isExecuted = true;\n    }\n\n    function viewVotes(uint256 _proposalId) public view returns (uint256 yesVotes, uint256 noVotes) {\n        Proposal storage proposal = proposals[_proposalId];\n        return (proposal.yesVotes, proposal.noVotes);\n    }\n\n    function getAllProposals() public view onlyVoters returns (\n        string[] memory svgs,\n        uint256[] memory yesVotes,\n        uint256[] memory noVotes,\n        bool[] memory isExecuted\n    ) {\n        uint256 length = proposals.length;\n\n        svgs = new string[](length);\n        yesVotes = new uint256[](length);\n        noVotes = new uint256[](length);\n        isExecuted = new bool[](length);\n\n        for (uint256 i = 0; i < length; i++) {\n            Proposal storage proposal = proposals[i];\n            svgs[i] = proposal.svg;\n            yesVotes[i] = proposal.yesVotes;\n            noVotes[i] = proposal.noVotes;\n            isExecuted[i] = proposal.isExecuted;\n        }\n    }\n}\n",
  "sourcePath": "/Users/Cinwald/Code/dao_voting/contracts/VotingDAO.sol",
  "compiler": {
    "name": "solc",
    "version": "0.8.21+commit.d9974bed.Emscripten.clang"
  },
  "schemaVersion": "3.4.16",
  "updatedAt": "2023-10-09T02:23:02.065Z",
  "networkType": "ethereum",
  "devdoc": {
    "kind": "dev",
    "methods": {},
    "version": 1
  },
  "userdoc": {
    "kind": "user",
    "methods": {},
    "version": 1
  }
}