{
  "contractName": "VotingDAO",
  "abi": [
    {
      "inputs": [],
      "stateMutability": "nonpayable",
      "type": "constructor"
    },
    {
      "anonymous": false,
      "inputs": [
        {
          "indexed": true,
          "internalType": "uint256",
          "name": "proposalId",
          "type": "uint256"
        },
        {
          "indexed": false,
          "internalType": "string",
          "name": "svg",
          "type": "string"
        }
      ],
      "name": "NewProposal",
      "type": "event"
    },
    {
      "anonymous": false,
      "inputs": [
        {
          "indexed": true,
          "internalType": "uint256",
          "name": "proposalId",
          "type": "uint256"
        },
        {
          "indexed": false,
          "internalType": "bool",
          "name": "vote",
          "type": "bool"
        },
        {
          "indexed": false,
          "internalType": "address",
          "name": "voter",
          "type": "address"
        }
      ],
      "name": "Voted",
      "type": "event"
    },
    {
      "inputs": [],
      "name": "owner",
      "outputs": [
        {
          "internalType": "address",
          "name": "",
          "type": "address"
        }
      ],
      "stateMutability": "view",
      "type": "function"
    },
    {
      "inputs": [
        {
          "internalType": "uint256",
          "name": "",
          "type": "uint256"
        }
      ],
      "name": "proposals",
      "outputs": [
        {
          "internalType": "string",
          "name": "svg",
          "type": "string"
        },
        {
          "internalType": "uint256",
          "name": "yesVotes",
          "type": "uint256"
        },
        {
          "internalType": "uint256",
          "name": "noVotes",
          "type": "uint256"
        },
        {
          "internalType": "bool",
          "name": "isExecuted",
          "type": "bool"
        }
      ],
      "stateMutability": "view",
      "type": "function"
    },
    {
      "inputs": [
        {
          "internalType": "address",
          "name": "",
          "type": "address"
        }
      ],
      "name": "voters",
      "outputs": [
        {
          "internalType": "bool",
          "name": "",
          "type": "bool"
        }
      ],
      "stateMutability": "view",
      "type": "function"
    },
    {
      "inputs": [
        {
          "internalType": "address",
          "name": "_voter",
          "type": "address"
        }
      ],
      "name": "addVoter",
      "outputs": [],
      "stateMutability": "nonpayable",
      "type": "function"
    },
    {
      "inputs": [
        {
          "internalType": "string",
          "name": "_svg",
          "type": "string"
        }
      ],
      "name": "createProposal",
      "outputs": [],
      "stateMutability": "nonpayable",
      "type": "function"
    },
    {
      "inputs": [
        {
          "internalType": "uint256",
          "name": "_proposalId",
          "type": "uint256"
        },
        {
          "internalType": "bool",
          "name": "_vote",
          "type": "bool"
        }
      ],
      "name": "vote",
      "outputs": [],
      "stateMutability": "nonpayable",
      "type": "function"
    },
    {
      "inputs": [
        {
          "internalType": "uint256",
          "name": "_proposalId",
          "type": "uint256"
        }
      ],
      "name": "executeProposal",
      "outputs": [],
      "stateMutability": "nonpayable",
      "type": "function"
    },
    {
      "inputs": [
        {
          "internalType": "uint256",
          "name": "_proposalId",
          "type": "uint256"
        }
      ],
      "name": "viewVotes",
      "outputs": [
        {
          "internalType": "uint256",
          "name": "yesVotes",
          "type": "uint256"
        },
        {
          "internalType": "uint256",
          "name": "noVotes",
          "type": "uint256"
        }
      ],
      "stateMutability": "view",
      "type": "function"
    }
  ],
  "bytecode": "0x608060405234801561000f575f80fd5b50335f806101000a81548173ffffffffffffffffffffffffffffffffffffffff021916908373ffffffffffffffffffffffffffffffffffffffff1602179055506114e88061005c5f395ff3fe608060405234801561000f575f80fd5b5060043610610086575f3560e01c8063a002f6ed11610059578063a002f6ed14610113578063a3ec138d14610144578063c9d27afe14610174578063f4ab9adf1461019057610086565b8063013cf08b1461008a5780630d61b519146100bd57806349c2a1a6146100d95780638da5cb5b146100f5575b5f80fd5b6100a4600480360381019061009f9190610a6e565b6101ac565b6040516100b49493929190610b4c565b60405180910390f35b6100d760048036038101906100d29190610a6e565b610279565b005b6100f360048036038101906100ee9190610cc2565b61044a565b005b6100fd6105b2565b60405161010a9190610d48565b60405180910390f35b61012d60048036038101906101289190610a6e565b6105d5565b60405161013b929190610d61565b60405180910390f35b61015e60048036038101906101599190610db2565b61060e565b60405161016b9190610ddd565b60405180910390f35b61018e60048036038101906101899190610e20565b61062b565b005b6101aa60048036038101906101a59190610db2565b610946565b005b600281815481106101bb575f80fd5b905f5260205f2090600502015f91509050805f0180546101da90610e8b565b80601f016020809104026020016040519081016040528092919081815260200182805461020690610e8b565b80156102515780601f1061022857610100808354040283529160200191610251565b820191905f5260205f20905b81548152906001019060200180831161023457829003601f168201915b505050505090806001015490806002015490806003015f9054906101000a900460ff16905084565b5f8054906101000a900473ffffffffffffffffffffffffffffffffffffffff1673ffffffffffffffffffffffffffffffffffffffff163373ffffffffffffffffffffffffffffffffffffffff1614610306576040517f08c379a00000000000000000000000000000000000000000000000000000000081526004016102fd90610f05565b60405180910390fd5b600280549050811061034d576040517f08c379a000000000000000000000000000000000000000000000000000000000815260040161034490610f6d565b60405180910390fd5b6002818154811061036157610360610f8b565b5b905f5260205f2090600502016003015f9054906101000a900460ff16156103bd576040517f08c379a00000000000000000000000000000000000000000000000000000000081526004016103b490611002565b60405180910390fd5b5f600282815481106103d2576103d1610f8b565b5b905f5260205f2090600502019050806002015481600101541161042a576040517f08c379a00000000000000000000000000000000000000000000000000000000081526004016104219061106a565b60405180910390fd5b6001816003015f6101000a81548160ff0219169083151502179055505050565b5f8054906101000a900473ffffffffffffffffffffffffffffffffffffffff1673ffffffffffffffffffffffffffffffffffffffff163373ffffffffffffffffffffffffffffffffffffffff16146104d7576040517f08c379a00000000000000000000000000000000000000000000000000000000081526004016104ce90610f05565b60405180910390fd5b600260018160018154018082558091505003905f5260205f209050505f6002600160028054905061050891906110b5565b8154811061051957610518610f8b565b5b905f5260205f209060050201905081815f0190816105379190611285565b505f81600101819055505f81600201819055505f816003015f6101000a81548160ff021916908315150217905550600160028054905061057791906110b5565b7fa9ef596c73fbcfb4a78bc139b1a19c35247c1f37d2489c0513ad2dd3eb7d8c6b836040516105a69190611354565b60405180910390a25050565b5f8054906101000a900473ffffffffffffffffffffffffffffffffffffffff1681565b5f805f600284815481106105ec576105eb610f8b565b5b905f5260205f2090600502019050806001015481600201549250925050915091565b6001602052805f5260405f205f915054906101000a900460ff1681565b60015f3373ffffffffffffffffffffffffffffffffffffffff1673ffffffffffffffffffffffffffffffffffffffff1681526020019081526020015f205f9054906101000a900460ff166106b4576040517f08c379a00000000000000000000000000000000000000000000000000000000081526004016106ab906113be565b60405180910390fd5b60028054905082106106fb576040517f08c379a00000000000000000000000000000000000000000000000000000000081526004016106f290610f6d565b60405180910390fd5b6002828154811061070f5761070e610f8b565b5b905f5260205f2090600502016003015f9054906101000a900460ff161561076b576040517f08c379a000000000000000000000000000000000000000000000000000000000815260040161076290611002565b60405180910390fd5b6002828154811061077f5761077e610f8b565b5b905f5260205f2090600502016004015f3373ffffffffffffffffffffffffffffffffffffffff1673ffffffffffffffffffffffffffffffffffffffff1681526020019081526020015f205f9054906101000a900460ff1615610816576040517f08c379a000000000000000000000000000000000000000000000000000000000815260040161080d90611426565b60405180910390fd5b60016002838154811061082c5761082b610f8b565b5b905f5260205f2090600502016004015f3373ffffffffffffffffffffffffffffffffffffffff1673ffffffffffffffffffffffffffffffffffffffff1681526020019081526020015f205f6101000a81548160ff02191690831515021790555080156108cf57600282815481106108a6576108a5610f8b565b5b905f5260205f2090600502016001015f8154809291906108c590611444565b9190505550610908565b600282815481106108e3576108e2610f8b565b5b905f5260205f2090600502016002015f81548092919061090290611444565b91905055505b817f86abfce99b7dd908bec0169288797f85049ec73cbe046ed9de818fab3a497ae0823360405161093a92919061148b565b60405180910390a25050565b5f8054906101000a900473ffffffffffffffffffffffffffffffffffffffff1673ffffffffffffffffffffffffffffffffffffffff163373ffffffffffffffffffffffffffffffffffffffff16146109d3576040517f08c379a00000000000000000000000000000000000000000000000000000000081526004016109ca90610f05565b60405180910390fd5b6001805f8373ffffffffffffffffffffffffffffffffffffffff1673ffffffffffffffffffffffffffffffffffffffff1681526020019081526020015f205f6101000a81548160ff02191690831515021790555050565b5f604051905090565b5f80fd5b5f80fd5b5f819050919050565b610a4d81610a3b565b8114610a57575f80fd5b50565b5f81359050610a6881610a44565b92915050565b5f60208284031215610a8357610a82610a33565b5b5f610a9084828501610a5a565b91505092915050565b5f81519050919050565b5f82825260208201905092915050565b5f5b83811015610ad0578082015181840152602081019050610ab5565b5f8484015250505050565b5f601f19601f8301169050919050565b5f610af582610a99565b610aff8185610aa3565b9350610b0f818560208601610ab3565b610b1881610adb565b840191505092915050565b610b2c81610a3b565b82525050565b5f8115159050919050565b610b4681610b32565b82525050565b5f6080820190508181035f830152610b648187610aeb565b9050610b736020830186610b23565b610b806040830185610b23565b610b8d6060830184610b3d565b95945050505050565b5f80fd5b5f80fd5b7f4e487b71000000000000000000000000000000000000000000000000000000005f52604160045260245ffd5b610bd482610adb565b810181811067ffffffffffffffff82111715610bf357610bf2610b9e565b5b80604052505050565b5f610c05610a2a565b9050610c118282610bcb565b919050565b5f67ffffffffffffffff821115610c3057610c2f610b9e565b5b610c3982610adb565b9050602081019050919050565b828183375f83830152505050565b5f610c66610c6184610c16565b610bfc565b905082815260208101848484011115610c8257610c81610b9a565b5b610c8d848285610c46565b509392505050565b5f82601f830112610ca957610ca8610b96565b5b8135610cb9848260208601610c54565b91505092915050565b5f60208284031215610cd757610cd6610a33565b5b5f82013567ffffffffffffffff811115610cf457610cf3610a37565b5b610d0084828501610c95565b91505092915050565b5f73ffffffffffffffffffffffffffffffffffffffff82169050919050565b5f610d3282610d09565b9050919050565b610d4281610d28565b82525050565b5f602082019050610d5b5f830184610d39565b92915050565b5f604082019050610d745f830185610b23565b610d816020830184610b23565b9392505050565b610d9181610d28565b8114610d9b575f80fd5b50565b5f81359050610dac81610d88565b92915050565b5f60208284031215610dc757610dc6610a33565b5b5f610dd484828501610d9e565b91505092915050565b5f602082019050610df05f830184610b3d565b92915050565b610dff81610b32565b8114610e09575f80fd5b50565b5f81359050610e1a81610df6565b92915050565b5f8060408385031215610e3657610e35610a33565b5b5f610e4385828601610a5a565b9250506020610e5485828601610e0c565b9150509250929050565b7f4e487b71000000000000000000000000000000000000000000000000000000005f52602260045260245ffd5b5f6002820490506001821680610ea257607f821691505b602082108103610eb557610eb4610e5e565b5b50919050565b7f4e6f7420617574686f72697a65640000000000000000000000000000000000005f82015250565b5f610eef600e83610aa3565b9150610efa82610ebb565b602082019050919050565b5f6020820190508181035f830152610f1c81610ee3565b9050919050565b7f496e76616c69642070726f706f73616c204944000000000000000000000000005f82015250565b5f610f57601383610aa3565b9150610f6282610f23565b602082019050919050565b5f6020820190508181035f830152610f8481610f4b565b9050919050565b7f4e487b71000000000000000000000000000000000000000000000000000000005f52603260045260245ffd5b7f50726f706f73616c20616c7265616479206578656375746564000000000000005f82015250565b5f610fec601983610aa3565b9150610ff782610fb8565b602082019050919050565b5f6020820190508181035f83015261101981610fe0565b9050919050565b7f4e6f7420656e6f7567682079657320766f7465730000000000000000000000005f82015250565b5f611054601483610aa3565b915061105f82611020565b602082019050919050565b5f6020820190508181035f83015261108181611048565b9050919050565b7f4e487b71000000000000000000000000000000000000000000000000000000005f52601160045260245ffd5b5f6110bf82610a3b565b91506110ca83610a3b565b92508282039050818111156110e2576110e1611088565b5b92915050565b5f819050815f5260205f209050919050565b5f6020601f8301049050919050565b5f82821b905092915050565b5f600883026111447fffffffffffffffffffffffffffffffffffffffffffffffffffffffffffffffff82611109565b61114e8683611109565b95508019841693508086168417925050509392505050565b5f819050919050565b5f61118961118461117f84610a3b565b611166565b610a3b565b9050919050565b5f819050919050565b6111a28361116f565b6111b66111ae82611190565b848454611115565b825550505050565b5f90565b6111ca6111be565b6111d5818484611199565b505050565b5b818110156111f8576111ed5f826111c2565b6001810190506111db565b5050565b601f82111561123d5761120e816110e8565b611217846110fa565b81016020851015611226578190505b61123a611232856110fa565b8301826111da565b50505b505050565b5f82821c905092915050565b5f61125d5f1984600802611242565b1980831691505092915050565b5f611275838361124e565b9150826002028217905092915050565b61128e82610a99565b67ffffffffffffffff8111156112a7576112a6610b9e565b5b6112b18254610e8b565b6112bc8282856111fc565b5f60209050601f8311600181146112ed575f84156112db578287015190505b6112e5858261126a565b86555061134c565b601f1984166112fb866110e8565b5f5b82811015611322578489015182556001820191506020850194506020810190506112fd565b8683101561133f578489015161133b601f89168261124e565b8355505b6001600288020188555050505b505050505050565b5f6020820190508181035f83015261136c8184610aeb565b905092915050565b7f4e6f74206120766f7465720000000000000000000000000000000000000000005f82015250565b5f6113a8600b83610aa3565b91506113b382611374565b602082019050919050565b5f6020820190508181035f8301526113d58161139c565b9050919050565b7f416c726561647920766f746564000000000000000000000000000000000000005f82015250565b5f611410600d83610aa3565b915061141b826113dc565b602082019050919050565b5f6020820190508181035f83015261143d81611404565b9050919050565b5f61144e82610a3b565b91507fffffffffffffffffffffffffffffffffffffffffffffffffffffffffffffffff82036114805761147f611088565b5b600182019050919050565b5f60408201905061149e5f830185610b3d565b6114ab6020830184610d39565b939250505056fea2646970667358221220ed5d18c1eacae547a35913e446e9f5e3694d8712a8e07e26590225ee06f91df264736f6c63430008150033",
  "immutableReferences": {},
  "source": "// SPDX-License-Identifier: MIT\npragma solidity ^0.8.21;\n\ncontract VotingDAO {\n    struct Proposal {\n        string svg; // the logo content\n        uint256 yesVotes;\n        uint256 noVotes;\n        bool isExecuted;\n        mapping(address => bool) hasVoted;\n    }\n\n    address public owner;\n    mapping(address => bool) public voters;\n    Proposal[] public proposals;\n\n    event NewProposal(uint256 indexed proposalId, string svg);\n    event Voted(uint256 indexed proposalId, bool vote, address voter);\n\n    constructor() {\n        owner = msg.sender;\n    }\n\n    modifier onlyOwner() {\n        require(msg.sender == owner, \"Not authorized\");\n        _;\n    }\n\n    modifier onlyVoters() {\n        require(voters[msg.sender], \"Not a voter\");\n        _;\n    }\n\n    function addVoter(address _voter) public onlyOwner {\n        voters[_voter] = true;\n    }\n\n    function createProposal(string memory _svg) public onlyOwner {\n        proposals.push();\n        Proposal storage newProposal = proposals[proposals.length - 1];\n        newProposal.svg = _svg;\n        newProposal.yesVotes = 0;\n        newProposal.noVotes = 0;\n        newProposal.isExecuted = false;\n\n        emit NewProposal(proposals.length - 1, _svg);\n    }\n\n    function vote(uint256 _proposalId, bool _vote) public onlyVoters {\n        require(_proposalId < proposals.length, \"Invalid proposal ID\");\n        require(!proposals[_proposalId].isExecuted, \"Proposal already executed\");\n        require(!proposals[_proposalId].hasVoted[msg.sender], \"Already voted\");\n\n        // Mark that this voter has voted on this proposal\n        proposals[_proposalId].hasVoted[msg.sender] = true;\n\n        if (_vote) {\n            proposals[_proposalId].yesVotes++;\n        } else {\n            proposals[_proposalId].noVotes++;\n        }\n\n        emit Voted(_proposalId, _vote, msg.sender);\n    }\n\n    function executeProposal(uint256 _proposalId) public onlyOwner {\n        require(_proposalId < proposals.length, \"Invalid proposal ID\");\n        require(!proposals[_proposalId].isExecuted, \"Proposal already executed\");\n\n        Proposal storage proposal = proposals[_proposalId];\n\n        require(proposal.yesVotes > proposal.noVotes, \"Not enough yes votes\");\n\n        proposal.isExecuted = true;\n    }\n\n    function viewVotes(uint256 _proposalId) public view returns (uint256 yesVotes, uint256 noVotes) {\n        Proposal storage proposal = proposals[_proposalId];\n        return (proposal.yesVotes, proposal.noVotes);\n    }\n}\n",
  "sourcePath": "/Users/Cinwald/Code/dao_voting/contracts/VotingDAO.sol",
  "compiler": {
    "name": "solc",
    "version": "0.8.21+commit.d9974bed.Emscripten.clang"
  },
  "schemaVersion": "3.4.16",
  "updatedAt": "2023-10-07T18:02:32.268Z",
  "devdoc": {
    "kind": "dev",
    "methods": {},
    "version": 1
  },
  "userdoc": {
    "kind": "user",
    "methods": {},
    "version": 1
  }
}