{
  "contractName": "VotingDAO",
  "abi": [
    {
      "inputs": [],
      "stateMutability": "nonpayable",
      "type": "constructor"
    },
    {
      "anonymous": false,
      "inputs": [
        {
          "indexed": true,
          "internalType": "uint256",
          "name": "proposalId",
          "type": "uint256"
        },
        {
          "indexed": false,
          "internalType": "string",
          "name": "svg",
          "type": "string"
        }
      ],
      "name": "NewProposal",
      "type": "event"
    },
    {
      "anonymous": false,
      "inputs": [
        {
          "indexed": true,
          "internalType": "uint256",
          "name": "proposalId",
          "type": "uint256"
        },
        {
          "indexed": false,
          "internalType": "bool",
          "name": "vote",
          "type": "bool"
        },
        {
          "indexed": false,
          "internalType": "address",
          "name": "voter",
          "type": "address"
        }
      ],
      "name": "Voted",
      "type": "event"
    },
    {
      "inputs": [],
      "name": "owner",
      "outputs": [
        {
          "internalType": "address",
          "name": "",
          "type": "address"
        }
      ],
      "stateMutability": "view",
      "type": "function",
      "constant": true
    },
    {
      "inputs": [
        {
          "internalType": "uint256",
          "name": "",
          "type": "uint256"
        }
      ],
      "name": "proposals",
      "outputs": [
        {
          "internalType": "string",
          "name": "svg",
          "type": "string"
        },
        {
          "internalType": "uint256",
          "name": "yesVotes",
          "type": "uint256"
        },
        {
          "internalType": "uint256",
          "name": "noVotes",
          "type": "uint256"
        },
        {
          "internalType": "bool",
          "name": "isExecuted",
          "type": "bool"
        }
      ],
      "stateMutability": "view",
      "type": "function",
      "constant": true
    },
    {
      "inputs": [
        {
          "internalType": "address",
          "name": "",
          "type": "address"
        }
      ],
      "name": "voters",
      "outputs": [
        {
          "internalType": "bool",
          "name": "",
          "type": "bool"
        }
      ],
      "stateMutability": "view",
      "type": "function",
      "constant": true
    },
    {
      "inputs": [
        {
          "internalType": "address",
          "name": "_voter",
          "type": "address"
        }
      ],
      "name": "addVoter",
      "outputs": [],
      "stateMutability": "nonpayable",
      "type": "function"
    },
    {
      "inputs": [
        {
          "internalType": "string",
          "name": "_svg",
          "type": "string"
        }
      ],
      "name": "createProposal",
      "outputs": [],
      "stateMutability": "nonpayable",
      "type": "function"
    },
    {
      "inputs": [
        {
          "internalType": "uint256",
          "name": "_proposalId",
          "type": "uint256"
        },
        {
          "internalType": "bool",
          "name": "_vote",
          "type": "bool"
        }
      ],
      "name": "vote",
      "outputs": [],
      "stateMutability": "nonpayable",
      "type": "function"
    },
    {
      "inputs": [
        {
          "internalType": "uint256",
          "name": "_proposalId",
          "type": "uint256"
        }
      ],
      "name": "executeProposal",
      "outputs": [],
      "stateMutability": "nonpayable",
      "type": "function"
    }
  ],
  "bytecode": "0x608060405234801561000f575f80fd5b50335f806101000a81548173ffffffffffffffffffffffffffffffffffffffff021916908373ffffffffffffffffffffffffffffffffffffffff1602179055506112c88061005c5f395ff3fe608060405234801561000f575f80fd5b506004361061007b575f3560e01c80638da5cb5b116100595780638da5cb5b146100ea578063a3ec138d14610108578063c9d27afe14610138578063f4ab9adf146101545761007b565b8063013cf08b1461007f5780630d61b519146100b257806349c2a1a6146100ce575b5f80fd5b610099600480360381019061009491906108dd565b610170565b6040516100a994939291906109bb565b60405180910390f35b6100cc60048036038101906100c791906108dd565b61023d565b005b6100e860048036038101906100e39190610b31565b61040e565b005b6100f261057b565b6040516100ff9190610bb7565b60405180910390f35b610122600480360381019061011d9190610bfa565b61059e565b60405161012f9190610c25565b60405180910390f35b610152600480360381019061014d9190610c68565b6105bb565b005b61016e60048036038101906101699190610bfa565b6107b5565b005b6002818154811061017f575f80fd5b905f5260205f2090600402015f91509050805f01805461019e90610cd3565b80601f01602080910402602001604051908101604052809291908181526020018280546101ca90610cd3565b80156102155780601f106101ec57610100808354040283529160200191610215565b820191905f5260205f20905b8154815290600101906020018083116101f857829003601f168201915b505050505090806001015490806002015490806003015f9054906101000a900460ff16905084565b5f8054906101000a900473ffffffffffffffffffffffffffffffffffffffff1673ffffffffffffffffffffffffffffffffffffffff163373ffffffffffffffffffffffffffffffffffffffff16146102ca576040517f08c379a00000000000000000000000000000000000000000000000000000000081526004016102c190610d4d565b60405180910390fd5b6002805490508110610311576040517f08c379a000000000000000000000000000000000000000000000000000000000815260040161030890610db5565b60405180910390fd5b6002818154811061032557610324610dd3565b5b905f5260205f2090600402016003015f9054906101000a900460ff1615610381576040517f08c379a000000000000000000000000000000000000000000000000000000000815260040161037890610e4a565b60405180910390fd5b5f6002828154811061039657610395610dd3565b5b905f5260205f209060040201905080600201548160010154116103ee576040517f08c379a00000000000000000000000000000000000000000000000000000000081526004016103e590610eb2565b60405180910390fd5b6001816003015f6101000a81548160ff0219169083151502179055505050565b5f8054906101000a900473ffffffffffffffffffffffffffffffffffffffff1673ffffffffffffffffffffffffffffffffffffffff163373ffffffffffffffffffffffffffffffffffffffff161461049b576040517f08c379a000000000000000000000000000000000000000000000000000000000815260040161049290610d4d565b60405180910390fd5b600260405180608001604052808381526020015f81526020015f81526020015f1515815250908060018154018082558091505060019003905f5260205f2090600402015f909190919091505f820151815f0190816104f9919061106d565b5060208201518160010155604082015181600201556060820151816003015f6101000a81548160ff021916908315150217905550505060016002805490506105419190611169565b7fa9ef596c73fbcfb4a78bc139b1a19c35247c1f37d2489c0513ad2dd3eb7d8c6b82604051610570919061119c565b60405180910390a250565b5f8054906101000a900473ffffffffffffffffffffffffffffffffffffffff1681565b6001602052805f5260405f205f915054906101000a900460ff1681565b60015f3373ffffffffffffffffffffffffffffffffffffffff1673ffffffffffffffffffffffffffffffffffffffff1681526020019081526020015f205f9054906101000a900460ff16610644576040517f08c379a000000000000000000000000000000000000000000000000000000000815260040161063b90611206565b60405180910390fd5b600280549050821061068b576040517f08c379a000000000000000000000000000000000000000000000000000000000815260040161068290610db5565b60405180910390fd5b6002828154811061069f5761069e610dd3565b5b905f5260205f2090600402016003015f9054906101000a900460ff16156106fb576040517f08c379a00000000000000000000000000000000000000000000000000000000081526004016106f290610e4a565b60405180910390fd5b801561073e576002828154811061071557610714610dd3565b5b905f5260205f2090600402016001015f81548092919061073490611224565b9190505550610777565b6002828154811061075257610751610dd3565b5b905f5260205f2090600402016002015f81548092919061077190611224565b91905055505b817f86abfce99b7dd908bec0169288797f85049ec73cbe046ed9de818fab3a497ae082336040516107a992919061126b565b60405180910390a25050565b5f8054906101000a900473ffffffffffffffffffffffffffffffffffffffff1673ffffffffffffffffffffffffffffffffffffffff163373ffffffffffffffffffffffffffffffffffffffff1614610842576040517f08c379a000000000000000000000000000000000000000000000000000000000815260040161083990610d4d565b60405180910390fd5b6001805f8373ffffffffffffffffffffffffffffffffffffffff1673ffffffffffffffffffffffffffffffffffffffff1681526020019081526020015f205f6101000a81548160ff02191690831515021790555050565b5f604051905090565b5f80fd5b5f80fd5b5f819050919050565b6108bc816108aa565b81146108c6575f80fd5b50565b5f813590506108d7816108b3565b92915050565b5f602082840312156108f2576108f16108a2565b5b5f6108ff848285016108c9565b91505092915050565b5f81519050919050565b5f82825260208201905092915050565b5f5b8381101561093f578082015181840152602081019050610924565b5f8484015250505050565b5f601f19601f8301169050919050565b5f61096482610908565b61096e8185610912565b935061097e818560208601610922565b6109878161094a565b840191505092915050565b61099b816108aa565b82525050565b5f8115159050919050565b6109b5816109a1565b82525050565b5f6080820190508181035f8301526109d3818761095a565b90506109e26020830186610992565b6109ef6040830185610992565b6109fc60608301846109ac565b95945050505050565b5f80fd5b5f80fd5b7f4e487b71000000000000000000000000000000000000000000000000000000005f52604160045260245ffd5b610a438261094a565b810181811067ffffffffffffffff82111715610a6257610a61610a0d565b5b80604052505050565b5f610a74610899565b9050610a808282610a3a565b919050565b5f67ffffffffffffffff821115610a9f57610a9e610a0d565b5b610aa88261094a565b9050602081019050919050565b828183375f83830152505050565b5f610ad5610ad084610a85565b610a6b565b905082815260208101848484011115610af157610af0610a09565b5b610afc848285610ab5565b509392505050565b5f82601f830112610b1857610b17610a05565b5b8135610b28848260208601610ac3565b91505092915050565b5f60208284031215610b4657610b456108a2565b5b5f82013567ffffffffffffffff811115610b6357610b626108a6565b5b610b6f84828501610b04565b91505092915050565b5f73ffffffffffffffffffffffffffffffffffffffff82169050919050565b5f610ba182610b78565b9050919050565b610bb181610b97565b82525050565b5f602082019050610bca5f830184610ba8565b92915050565b610bd981610b97565b8114610be3575f80fd5b50565b5f81359050610bf481610bd0565b92915050565b5f60208284031215610c0f57610c0e6108a2565b5b5f610c1c84828501610be6565b91505092915050565b5f602082019050610c385f8301846109ac565b92915050565b610c47816109a1565b8114610c51575f80fd5b50565b5f81359050610c6281610c3e565b92915050565b5f8060408385031215610c7e57610c7d6108a2565b5b5f610c8b858286016108c9565b9250506020610c9c85828601610c54565b9150509250929050565b7f4e487b71000000000000000000000000000000000000000000000000000000005f52602260045260245ffd5b5f6002820490506001821680610cea57607f821691505b602082108103610cfd57610cfc610ca6565b5b50919050565b7f4e6f7420617574686f72697a65640000000000000000000000000000000000005f82015250565b5f610d37600e83610912565b9150610d4282610d03565b602082019050919050565b5f6020820190508181035f830152610d6481610d2b565b9050919050565b7f496e76616c69642070726f706f73616c204944000000000000000000000000005f82015250565b5f610d9f601383610912565b9150610daa82610d6b565b602082019050919050565b5f6020820190508181035f830152610dcc81610d93565b9050919050565b7f4e487b71000000000000000000000000000000000000000000000000000000005f52603260045260245ffd5b7f50726f706f73616c20616c7265616479206578656375746564000000000000005f82015250565b5f610e34601983610912565b9150610e3f82610e00565b602082019050919050565b5f6020820190508181035f830152610e6181610e28565b9050919050565b7f4e6f7420656e6f7567682079657320766f7465730000000000000000000000005f82015250565b5f610e9c601483610912565b9150610ea782610e68565b602082019050919050565b5f6020820190508181035f830152610ec981610e90565b9050919050565b5f819050815f5260205f209050919050565b5f6020601f8301049050919050565b5f82821b905092915050565b5f60088302610f2c7fffffffffffffffffffffffffffffffffffffffffffffffffffffffffffffffff82610ef1565b610f368683610ef1565b95508019841693508086168417925050509392505050565b5f819050919050565b5f610f71610f6c610f67846108aa565b610f4e565b6108aa565b9050919050565b5f819050919050565b610f8a83610f57565b610f9e610f9682610f78565b848454610efd565b825550505050565b5f90565b610fb2610fa6565b610fbd818484610f81565b505050565b5b81811015610fe057610fd55f82610faa565b600181019050610fc3565b5050565b601f82111561102557610ff681610ed0565b610fff84610ee2565b8101602085101561100e578190505b61102261101a85610ee2565b830182610fc2565b50505b505050565b5f82821c905092915050565b5f6110455f198460080261102a565b1980831691505092915050565b5f61105d8383611036565b9150826002028217905092915050565b61107682610908565b67ffffffffffffffff81111561108f5761108e610a0d565b5b6110998254610cd3565b6110a4828285610fe4565b5f60209050601f8311600181146110d5575f84156110c3578287015190505b6110cd8582611052565b865550611134565b601f1984166110e386610ed0565b5f5b8281101561110a578489015182556001820191506020850194506020810190506110e5565b868310156111275784890151611123601f891682611036565b8355505b6001600288020188555050505b505050505050565b7f4e487b71000000000000000000000000000000000000000000000000000000005f52601160045260245ffd5b5f611173826108aa565b915061117e836108aa565b92508282039050818111156111965761119561113c565b5b92915050565b5f6020820190508181035f8301526111b4818461095a565b905092915050565b7f4e6f74206120766f7465720000000000000000000000000000000000000000005f82015250565b5f6111f0600b83610912565b91506111fb826111bc565b602082019050919050565b5f6020820190508181035f83015261121d816111e4565b9050919050565b5f61122e826108aa565b91507fffffffffffffffffffffffffffffffffffffffffffffffffffffffffffffffff82036112605761125f61113c565b5b600182019050919050565b5f60408201905061127e5f8301856109ac565b61128b6020830184610ba8565b939250505056fea264697066735822122028c051cca882dc4516a41631ba072cabdf3c2567ed413e2a12bc65c6c73a8fc864736f6c63430008150033",
  "immutableReferences": {},
  "source": "// SPDX-License-Identifier: MIT\npragma solidity ^0.8.21;\n\ncontract VotingDAO {\n    struct Proposal {\n        string svg;\n        uint256 yesVotes;\n        uint256 noVotes;\n        bool isExecuted;\n    }\n\n    address public owner;\n    mapping(address => bool) public voters;\n    Proposal[] public proposals;\n\n    event NewProposal(uint256 indexed proposalId, string svg);\n    event Voted(uint256 indexed proposalId, bool vote, address voter);\n\n    constructor() {\n        owner = msg.sender;\n    }\n\n    modifier onlyOwner() {\n        require(msg.sender == owner, \"Not authorized\");\n        _;\n    }\n\n    modifier onlyVoters() {\n        require(voters[msg.sender], \"Not a voter\");\n        _;\n    }\n\n    function addVoter(address _voter) public onlyOwner {\n        voters[_voter] = true;\n    }\n\n    function createProposal(string memory _svg) public onlyOwner {\n        proposals.push(Proposal(_svg, 0, 0, false));\n        emit NewProposal(proposals.length - 1, _svg);\n    }\n\n    function vote(uint256 _proposalId, bool _vote) public onlyVoters {\n        require(_proposalId < proposals.length, \"Invalid proposal ID\");\n        require(!proposals[_proposalId].isExecuted, \"Proposal already executed\");\n\n        if (_vote) {\n            proposals[_proposalId].yesVotes++;\n        } else {\n            proposals[_proposalId].noVotes++;\n        }\n\n        emit Voted(_proposalId, _vote, msg.sender);\n    }\n\n    function executeProposal(uint256 _proposalId) public onlyOwner {\n        require(_proposalId < proposals.length, \"Invalid proposal ID\");\n        require(!proposals[_proposalId].isExecuted, \"Proposal already executed\");\n\n        Proposal storage proposal = proposals[_proposalId];\n        \n        require(proposal.yesVotes > proposal.noVotes, \"Not enough yes votes\");\n\n        proposal.isExecuted = true;\n    }\n}\n",
  "sourcePath": "/Users/Cinwald/Code/dao_voting/contracts/VotingDAO.sol",
  "compiler": {
    "name": "solc",
    "version": "0.8.21+commit.d9974bed.Emscripten.clang"
  },
  "schemaVersion": "3.4.16",
  "updatedAt": "2023-10-06T19:14:53.795Z",
  "networkType": "ethereum",
  "devdoc": {
    "kind": "dev",
    "methods": {},
    "version": 1
  },
  "userdoc": {
    "kind": "user",
    "methods": {},
    "version": 1
  }
}